:030000000208B241
:0C08B200787FE4F6D8FD7581460208F955
:0A0A6B004539343039363236370091
:100996000808000A0A00110E0000081001030509E4
:1009A6000B1B18000818000A1F1F0E040000082061
:1009B600001F151F1F0A1B0008280A0A1F151B1FE8
:1009C60000000830000E1F150E0E00000838040E39
:0609D6001F040E1F0400C7
:100800007B007A0079087D0112093E7B007A00792D
:10081000107D0212093E7B007A0079187D031209CF
:100820003E7B007A0079207D0412093E7B007A002D
:1008300079287D0512093E7B007A0079307D061209
:10084000093E7B007A0079387D0712093E7F381215
:100850000A577F0C120A577F06120A577F01120AA5
:10086000577F80120A577BFF7A0A796B120A237F1F
:10087000C0120A577F04120A617F04120A617F04C2
:10088000120A617F04120A617F04120A617F041256
:100890000A617F04120A617F04120A617F04120A4E
:1008A000617F04120A617F04120A617F04120A61E7
:0208B00080FEC8
:0A0A57008F80C2A0120A46C2A1223D
:0A0A61008F80D2A0120A46C2A12223
:06093E008B408A41894252
:10094400E4F543F544AF05EF3395E0FEEF7803C3D8
:1009540033CE33CED8F92440F546E43EF545E4F5EC
:1009640043F544E5462544FF120A57AB40AA41A982
:10097400428544828543831209F6FF120A610544C5
:10098400E54470020543C39408E5436480948040C1
:01099400D290
:01099500223F
:100A23008B408A418942AB40AA41A9421209DDFFAA
:100A33006010120A6174012542F542E43541F54123
:030A430080E4222A
:060A4600D2A17F647E00D6
:0B0A4C00EF1FAC0670011E4C70F6227C
:1008BE00020800E493A3F8E493A34003F68001F248
:1008CE0008DFF48029E493A3F85407240CC8C3333B
:1008DE00C4540F4420C8834004F456800146F6DF0A
:1008EE00E4800B0102040810204080900996E47EFB
:1008FE00019360BCA3FF543F30E509541FFEE493FF
:10090E00A360010ECF54C025E060A840B8E493A3C5
:10091E00FAE493A3F8E493A3C8C582C8CAC583CAF0
:10092E00F0A3C8C582C8CAC583CADFE9DEE780BEA8
:0109DC00001A
:1009DD00BB010689828A83E0225002E722BBFE0218
:0909ED00E32289828A83E493224B
:1009F600BB010CE58229F582E5833AF583E02250B6
:100A060006E92582F8E622BBFE06E92582F8E222FF
:0D0A1600E58229F582E5833AF583E4932219
:00000001FF
