:02000000802E50
:02000300215E7C
:1000300075A881758131C288D2D3780079007A00A1
:10004000C2D3D200C2D3780079047AF7D2B3EAF5EA
:10005000A030B36B30A7150830A6110830A50D08E5
:1000600030A4090803FAD9E4313580D83128900149
:10007000B7E893B40A028039B40B028034B40C029E
:10008000802FB40D02802AB40F028007B40E0280C4
:100090000C803BD2D3780079007A0080CBD2D3D0C9
:1000A0000ED00DD00C3106C00B780079007A00809C
:1000B000B7D2D3C0E0C200780079007A0080A931BD
:1000C00028D2D3E581B43132D00B3170809AD2D3AB
:1000D000FFE9F8EAF9EFFAE875F064A4FBE975F0D6
:1000E0000AA48BF025F08AF025F0FB300006E581AC
:1000F0009401F581C00BD2000168D00ED00DD00C58
:100100003106C00B0168EC8EF0BD0A0625F0FB310C
:100110007022BD0B0695F0FB317022BD0C05A4FBCF
:1001200031702284FB3170227D037EC87FFADFFEAE
:10013000DEFADDF6229001C7D2D3C281E893F590B2
:0A0140003159D281C282E993F59093
:10014A003159D282C283EA93F5903159D283227F00
:10015A0096DFFE22D2D39001C77D0A3188E8FCE9F6
:10016A00F8EAF97A0032EB75F00A84AAF075F00A17
:10017A0084A9F0F8227E643135DEFCDDF8227E6443
:10018A00C283EA93F5903159D283C282E993F590FA
:10019A003159D282C281E893F5903159D281C28015
:1001AA00EC93F5903159D280DED6DDD222010203DA
:1001BA000A0405060B0708090C0F000E0DC0F9A466
:0901CA00B0999282D880908883DC
:00000001FF
