:030000000209935F
:0C099300787FE4F6D8FD7581650209DA72
:100DCA007F0A7E00120DE0C2A27F0A7E00120DE0A9
:060DDA008D807F0A7E00FF
:0B0DE000EF1FAC0670011E4C70F622E5
:100DEB00AD077F647E00120DE0C2A1120DDCC2A024
:0F0DFB00120DCAD2A17F327E00120DE0C2A122DA
:100E0A00AD077F647E00120DE0C2A1120DDCD2A0F4
:0F0E1A00120DCAD2A17F327E00120DE0C2A122BA
:0A0EC4007F38120DEB7F06020DEBE4
:020E5E00AE07DD
:100E60007F08EE6003430704ED6003430702EB6075
:070E700003430701020DEB33
:0E0EB600EF60047B1480027B10AF03020DEB93
:050ED5007F01020DEB9E
:050EDA007F02020DEB98
:020E2900AE0712
:100E2B007F8053060F530501EE4207ED6003430726
:090E3B0040120DEBAF03020E0A98
:080CC3008F5F8B608A6189627A
:100CCB00535F0F5305018D64C3E5649402748094E4
:100CDB0080503B855F63C3E56394107480948050B0
:100CEB0029AB60AA61A962120D61FF3395E04F60D9
:100CFB00190562E5627002056114F9120D61FBAD15
:0E0D0B0064AF63120E29056380CC056480BAC4
:010D190022B7
:060C6B008B5F8A608961C5
:100C7100E4F562F563AF05EF3395E0FEEF7803C36A
:100C810033CE33CED8F92440F565E43EF564E4F57E
:100C910062F563E5652563FF120DEBAB5FAA60A901
:100CA10061856382856283120D7AFF120E0A0563E4
:100CB100E56370020562C39408E562648094804034
:010CC100D260
:010CC200220F
:100E9000120D61FF600C120E0A740129F9E43AFA8E
:030EA00080EE22BF
:100A9300202020202020004C4F5700484947480081
:100AA3004D4944444C450020202000453934303919
:100AB3003632363700426573742800574F52535409
:100AC300280020202020202020202020202020203B
:100AD30020200046696E616C206578616D004D6170
:100AE30072717565655F63686172004D61727175DE
:070AF30065655F737472007A
:100A1F00080A000A1F1F0E0400000812001F151FEE
:100A2F001F0A1B00015C00015B00011C0104362042
:100A3F0020200002340000023C0000025700000298
:100A4F005D00010331414243021F0000114020208D
:100A5F0020202020202020202020202020200002C5
:100A6F0053000002590001023E0001021A00000269
:100A7F003A0000021D0000020800000255000002AB
:030A8F0051000013
:1008DA00120ECE120EDFC2B4D2B4120EC47B017D48
:1008EA00017F01120E5E7F0C120DEB7B007A0079FC
:1008FA000A7D03120C6B7B007A0079127D04120CBC
:10090A006B85905BE5544553603FE55A6554700426
:10091A00E5596553600B85535985545A7F01120D69
:10092A00EBE55370DCE55424FE600F14601114608B
:10093A0013240370CC120E7780C7120D1A80C212CC
:10094A000B5B80BD120E4480B8E55E65587004E505
:10095A005D6557600B85575D85585E7F01120DEB0B
:10096A00E557709DE55814600F1460111460142443
:10097A0003708E1208008089120EE48084120DA77B
:09098A0002090B120AFA02090B22
:100EA3005389F0438902758C05758A05D2A9D2AF9F
:030EB300D28C22BC
:070ECE00C288D2A8D2AF22B6
:050EDF00C28AD2AA2224
:10080000E51C2403FFE433FED3E55B9FEE6480F830
:10081000748098500EE51C24FDFFE55BC39F4003E8
:100820000208D9855B1C7BFF7A0A7993E4FDFF12ED
:100830000CC3D3E55B94507480948050087BFF7A9E
:100840000A799A8017C3E55B94AB748094807BFF30
:1008500040067A0A799E80047A0A79A3E4FDFF12A1
:100860000CC3E55B75F064842430F536E55B75F008
:100870000A8475F00A84E5F02430F537E55B75F0FD
:100880000A84E5F02430F5387BFF7A0A79AAE4FD82
:100890007F07120CC37B007A007936E4FD7F0712D4
:1008A0000CC3E4F55CC3E55C941074809480501C28
:1008B000E55BC4540FFFE55C9F50047F0480027F1A
:1008C000207421255CF8A607055C80D97B007A009E
:0A08D00079217D01E4FF120CC32220
:050EE4007F08020DEB88
:100DA7007F0C120DEB7BFF7A0A79AEE4FDFF120C84
:100DB700C37B03E4FD7F0E120E297B04E4FD7F0F46
:030DC700020E29F0
:100AFA007BFF7A0A79B8E4FDFF120CC3E53F243084
:100B0A00FBE4FD7F05120E297B29E4FD7F06120E08
:100B1A00297BFF7A0A79BE7D01E4FF120CC3E53F07
:100B2A002430FB7D017F06120E297B297D017F0778
:100B3A00120E297F307E75120DE0E53F6406453EB0
:100B4A007006F53E753F0122053FE53F7002053EFE
:010B5A002278
:100E77007BFF7A0A79C57D01E4FF120CC37BFF7AF9
:090E87000A79D6E4FDFF020CC358
:100D1A007BFF7A0A79E1E4FDFF120CC3E53514FF83
:100D2A007B207D01120E29AF357B047D01120E292D
:100D3A00E53524FEFF7B207D01120E29E53514FFDF
:100D4A007B037D01120E297F107E27120DE00535E7
:070D5A00E5357002053422AB
:100B5B007BFF7A0A79EEE4FDFF120CC37BFF7A0A66
:100B6B0079E1E4FDFF120CC3C374109535FF7B20B4
:100B7B007D01120E29C3740F9535FF7B047D011285
:100B8B000E29C374119535FF7B207D01120E29C3ED
:100B9B0074109535FF7B037D01120E297F107E2784
:0C0BAB00120DE00535E53570020534221E
:100E4400C3740F9535FF7B047D01120E29C3741002
:0A0E54009535FF7B037D01020E2996
:03000300020BB736
:100BB700C0E0C0F0C083C082C0D075D000C000C004
:100BC70001C002C003C004C005C006C007C3E55882
:100BD7009403E5579400400875570075580080083E
:100BE7000558E558700205577F307E75120DE0D025
:100BF70007D006D005D004D003D002D001D000D052
:0A0C0700D0D082D083D0F0D0E032CC
:03001300020C11CB
:100C1100C0E0C0F0C083C082C0D075D000C000C0A9
:100C210001C002C003C004C005C006C007C3E5542B
:100C31009404E553940040087553007554008008EE
:100C41000554E554700205537F307E75120DE0D0D6
:100C510007D006D005D004D003D002D001D000D0F7
:0A0C6100D0D082D083D0F0D0E03272
:10099F000208DAE493A3F8E493A34003F68001F28C
:1009AF0008DFF48029E493A3F85407240CC8C33359
:1009BF00C4540F4420C8834004F456800146F6DF28
:1009CF00E4800B0102040810204080900A1FE47E8F
:1009DF00019360BCA3FF543F30E509541FFEE4931D
:1009EF00A360010ECF54C025E060A840B8E493A3E4
:1009FF00FAE493A3F8E493A3C8C582C8CAC583CA0F
:100A0F00F0A3C8C582C8CAC583CADFE9DEE780BEC6
:010A92000063
:100D6100BB010689828A83E0225002E722BBFE0290
:090D7100E32289828A83E49322C3
:100D7A00BB010CE58229F582E5833AF583E022502E
:100D8A0006E92582F8E622BBFE06E92582F8E22278
:0D0D9A00E58229F582E5833AF583E4932292
:00000001FF
