:1000000090007A7D02780179047AF7EAF5A030A7AA
:10001000120830A60E0830A50A0830A41103FAD938
:10002000EA80E2114EE8DD03FE80DAFF80D7114E50
:10003000E914603714602E14602414601A80C675A9
:10004000F00A8493F5901171E5F093F590227C64A9
:100050007BFADBFEDCFA22EE8FF025F080E1EE8FFA
:10006000F095F080DAEE8FF0A480D4EE8FF08480EB
:10007000CE7BFA7CFADCFEDBFA22039F250D994940
:04008000411B010916
:00000001FF
