:030000000209866C
:0C098600787FE4F6D8FD75811102095855
:10097600010204080C06030909080C040602030117
:10095800750A05750BDCE4F508F509F50EF50FD2F7
:0E09680088D288D2A8D2AAD2AF12088B80FB08
:10088B00E50F6401450E701EF51075110712092D49
:10089B00E511151170021510D3E5119400E51064E4
:1008AB0080948050E822E4F510F51112092D051102
:1008BB00E51170020510C39408E510648094804024
:0108CB00EA42
:0108CC002209
:10092D00747E2511F58274093510F583E493F590E5
:10093D00E5092401FDE43508FCAE0AAF0B120800F1
:0B094D00EF1FAC0670011E4C70F6227C
:03000B000208CD1B
:1008CD00C0E0C0D075D000C004C006C007E5094522
:1008DD000870047F0180027F007508008F097FE892
:1008ED007E0312094DD007D006D004D0D0D0E0320F
:030013000208FDE3
:1008FD00C0E0C0D075D000C004C006C007E50F45EC
:10090D000E70047F0180027F00750E008F0F7FE84F
:10091D007E0312094DD007D006D004D0D0D0E032DE
:10080000C2D5EC30E709B2D5E4C39DFDE49CFCEE13
:1008100030E715B2D5E4C39FFFE49EFE120836C34D
:10082000E49DFDE49CFC800312083630D507C3E448
:060830009FFFE49EFE2282
:10083600BC000BBE0029EF8DF084FFADF022E4CCA6
:10084600F875F008EF2FFFEE33FEEC33FCEE9DEC6F
:10085600984005FCEE9DFE0FD5F0E9E4CEFD22EDB5
:10086600F8F5F0EE8420D21CFEADF075F008EF2FFF
:10087600FFED33FD4007985006D5F0F222C398FDF0
:050886000FD5F0EA228D
:00000001FF
