:030000000208B73C
:0C08B700787FE4F6D8FD7581210208FE70
:1009A7000D0A00636F72726563740077726F6E670A
:0109B700003F
:100971000A1345393430393632363700021D00004A
:0C0981000A09787878787878787878001F
:0509C7001209B880FEDA
:0F09B800759850758920758DE6D28E75A890229E
:060943007BFF7A0979A791
:100949008B1F8A208921AB1FAA20A92112098E6039
:10095900160521E5217002052014F912098EF59971
:080969003099FDC29980DF22E4
:03002300020800D0
:10080000C0E0C083C082C0D075D000C000C001C0AD
:1008100002C003C0073098FDC298C3E51E9409E5E5
:100820001D648094805019AF1E74092FF8A6997426
:10083000092FF8E6F5A0051EE51E700A051D8006C5
:10084000751D00751E00120943E5096513703DE52D
:100850000A65147037E50B65157031E50C65167087
:100860002BE50D65177025E50E6518701FE50FB5B2
:10087000191AE510B51A15E511B51B10E512B51CCE
:100880000B1209437BFF7A0979AA80091209437B7D
:10089000FF7A0979B21209491209437B007A00797B
:1008A00009120949D007D003D002D001D000D0D01E
:0708B000D082D083D0E032BA
:1008C3000209C7E493A3F8E493A34003F68001F27B
:1008D30008DFF48029E493A3F85407240CC8C33336
:1008E300C4540F4420C8834004F456800146F6DF05
:1008F300E4800B0102040810204080900971E47E1B
:10090300019360BCA3FF543F30E509541FFEE493F9
:10091300A360010ECF54C025E060A840B8E493A3C0
:10092300FAE493A3F8E493A3C8C582C8CAC583CAEB
:10093300F0A3C8C582C8CAC583CADFE9DEE780BEA3
:01098D000069
:10098E00BB010689828A83E0225002E722BBFE0267
:09099E00E32289828A83E493229A
:00000001FF
